{
  "address": "0xe7f1725E7734CE288F8367e1Bb143E90bb3F0512",
  "abi": [
    {
      "inputs": [
        {
          "internalType": "uint256",
          "name": "initialCounterValue",
          "type": "uint256"
        }
      ],
      "stateMutability": "nonpayable",
      "type": "constructor"
    },
    {
      "inputs": [],
      "name": "add",
      "outputs": [],
      "stateMutability": "nonpayable",
      "type": "function"
    },
    {
      "inputs": [],
      "name": "counter",
      "outputs": [
        {
          "internalType": "uint256",
          "name": "",
          "type": "uint256"
        }
      ],
      "stateMutability": "view",
      "type": "function"
    },
    {
      "inputs": [],
      "name": "decrease",
      "outputs": [],
      "stateMutability": "nonpayable",
      "type": "function"
    }
  ],
  "transactionHash": "0x0a27abd1008e74c5836248c9927291de9a092b29fdf13a47953fee1f4f7915f5",
  "args": [
    10
  ],
  "numDeployments": 1,
  "solcInputHash": "f5ba3cb65acad8a291e277174cb05685",
  "bytecode": "0x608060405234801561001057600080fd5b506040516102703803806102708339818101604052810190610032919061007a565b80600081905550506100a7565b600080fd5b6000819050919050565b61005781610044565b811461006257600080fd5b50565b6000815190506100748161004e565b92915050565b6000602082840312156100905761008f61003f565b5b600061009e84828501610065565b91505092915050565b6101ba806100b66000396000f3fe608060405234801561001057600080fd5b50600436106100415760003560e01c80634f2be91f1461004657806361bc221a14610050578063d732d9551461006e575b600080fd5b61004e610078565b005b610058610091565b60405161006591906100c9565b60405180910390f35b610076610097565b005b60008081548092919061008a90610113565b9190505550565b60005481565b6000808154809291906100a99061015b565b9190505550565b6000819050919050565b6100c3816100b0565b82525050565b60006020820190506100de60008301846100ba565b92915050565b7f4e487b7100000000000000000000000000000000000000000000000000000000600052601160045260246000fd5b600061011e826100b0565b91507fffffffffffffffffffffffffffffffffffffffffffffffffffffffffffffffff82036101505761014f6100e4565b5b600182019050919050565b6000610166826100b0565b915060008203610179576101786100e4565b5b60018203905091905056fea2646970667358221220d09b0923244d4b243574b578321cb6ff0164816df9d09f0d4df226545e3cf28164736f6c63430008110033",
  "devdoc": {
    "kind": "dev",
    "methods": {},
    "version": 1
  },
  "userdoc": {
    "kind": "user",
    "methods": {},
    "version": 1
  },
  "storageLayout": {
    "storage": [
      {
        "astId": 826,
        "contract": "contracts/HardHatDemo.sol:HardHatDemo",
        "label": "counter",
        "offset": 0,
        "slot": "0",
        "type": "t_uint256"
      }
    ],
    "types": {
      "t_uint256": {
        "encoding": "inplace",
        "label": "uint256",
        "numberOfBytes": "32"
      }
    }
  }
}