{
  "address": "0x5FbDB2315678afecb367f032d93F642f64180aa3",
  "abi": [
    {
      "inputs": [],
      "stateMutability": "nonpayable",
      "type": "constructor"
    },
    {
      "inputs": [],
      "name": "greetingMessage",
      "outputs": [
        {
          "internalType": "string",
          "name": "",
          "type": "string"
        }
      ],
      "stateMutability": "view",
      "type": "function"
    },
    {
      "inputs": [
        {
          "internalType": "string",
          "name": "name",
          "type": "string"
        }
      ],
      "name": "setGreetings",
      "outputs": [
        {
          "internalType": "string",
          "name": "",
          "type": "string"
        }
      ],
      "stateMutability": "nonpayable",
      "type": "function"
    }
  ],
  "transactionHash": "0x2907b5b1f882847659ee6d6c1be4de06bf69664bc47c6074a2847f9cfd9679ca",
  "args": [],
  "numDeployments": 1,
  "solcInputHash": "f5ba3cb65acad8a291e277174cb05685",
  "bytecode": "0x60806040523480156200001157600080fd5b506040518060400160405280600c81526020017f48656c6c6f20776f726c6421000000000000000000000000000000000000000081525060009081620000589190620002d9565b50620003c0565b600081519050919050565b7f4e487b7100000000000000000000000000000000000000000000000000000000600052604160045260246000fd5b7f4e487b7100000000000000000000000000000000000000000000000000000000600052602260045260246000fd5b60006002820490506001821680620000e157607f821691505b602082108103620000f757620000f662000099565b5b50919050565b60008190508160005260206000209050919050565b60006020601f8301049050919050565b600082821b905092915050565b600060088302620001617fffffffffffffffffffffffffffffffffffffffffffffffffffffffffffffffff8262000122565b6200016d868362000122565b95508019841693508086168417925050509392505050565b6000819050919050565b6000819050919050565b6000620001ba620001b4620001ae8462000185565b6200018f565b62000185565b9050919050565b6000819050919050565b620001d68362000199565b620001ee620001e582620001c1565b8484546200012f565b825550505050565b600090565b62000205620001f6565b62000212818484620001cb565b505050565b5b818110156200023a576200022e600082620001fb565b60018101905062000218565b5050565b601f82111562000289576200025381620000fd565b6200025e8462000112565b810160208510156200026e578190505b620002866200027d8562000112565b83018262000217565b50505b505050565b600082821c905092915050565b6000620002ae600019846008026200028e565b1980831691505092915050565b6000620002c983836200029b565b9150826002028217905092915050565b620002e4826200005f565b67ffffffffffffffff8111156200030057620002ff6200006a565b5b6200030c8254620000c8565b620003198282856200023e565b600060209050601f8311600181146200035157600084156200033c578287015190505b620003488582620002bb565b865550620003b8565b601f1984166200036186620000fd565b60005b828110156200038b5784890151825560018201915060208501945060208101905062000364565b86831015620003ab5784890151620003a7601f8916826200029b565b8355505b6001600288020188555050505b505050505050565b61083d80620003d06000396000f3fe608060405234801561001057600080fd5b50600436106100365760003560e01c806349da5de41461003b578063668f50951461006b575b600080fd5b61005560048036038101906100509190610334565b610089565b60405161006291906103fc565b60405180910390f35b61007361014c565b60405161008091906103fc565b60405180910390f35b60608160405160200161009c91906104f2565b604051602081830303815290604052600090816100b99190610735565b50600080546100c79061054e565b80601f01602080910402602001604051908101604052809291908181526020018280546100f39061054e565b80156101405780601f1061011557610100808354040283529160200191610140565b820191906000526020600020905b81548152906001019060200180831161012357829003601f168201915b50505050509050919050565b600080546101599061054e565b80601f01602080910402602001604051908101604052809291908181526020018280546101859061054e565b80156101d25780601f106101a7576101008083540402835291602001916101d2565b820191906000526020600020905b8154815290600101906020018083116101b557829003601f168201915b505050505081565b6000604051905090565b600080fd5b600080fd5b600080fd5b600080fd5b6000601f19601f8301169050919050565b7f4e487b7100000000000000000000000000000000000000000000000000000000600052604160045260246000fd5b610241826101f8565b810181811067ffffffffffffffff821117156102605761025f610209565b5b80604052505050565b60006102736101da565b905061027f8282610238565b919050565b600067ffffffffffffffff82111561029f5761029e610209565b5b6102a8826101f8565b9050602081019050919050565b82818337600083830152505050565b60006102d76102d284610284565b610269565b9050828152602081018484840111156102f3576102f26101f3565b5b6102fe8482856102b5565b509392505050565b600082601f83011261031b5761031a6101ee565b5b813561032b8482602086016102c4565b91505092915050565b60006020828403121561034a576103496101e4565b5b600082013567ffffffffffffffff811115610368576103676101e9565b5b61037484828501610306565b91505092915050565b600081519050919050565b600082825260208201905092915050565b60005b838110156103b757808201518184015260208101905061039c565b60008484015250505050565b60006103ce8261037d565b6103d88185610388565b93506103e8818560208601610399565b6103f1816101f8565b840191505092915050565b6000602082019050818103600083015261041681846103c3565b905092915050565b600081905092915050565b7f48656c6c6f2c2000000000000000000000000000000000000000000000000000600082015250565b600061045f60078361041e565b915061046a82610429565b600782019050919050565b60006104808261037d565b61048a818561041e565b935061049a818560208601610399565b80840191505092915050565b7f2100000000000000000000000000000000000000000000000000000000000000600082015250565b60006104dc60018361041e565b91506104e7826104a6565b600182019050919050565b60006104fd82610452565b91506105098284610475565b9150610514826104cf565b915081905092915050565b7f4e487b7100000000000000000000000000000000000000000000000000000000600052602260045260246000fd5b6000600282049050600182168061056657607f821691505b6020821081036105795761057861051f565b5b50919050565b60008190508160005260206000209050919050565b60006020601f8301049050919050565b600082821b905092915050565b6000600883026105e17fffffffffffffffffffffffffffffffffffffffffffffffffffffffffffffffff826105a4565b6105eb86836105a4565b95508019841693508086168417925050509392505050565b6000819050919050565b6000819050919050565b600061063261062d61062884610603565b61060d565b610603565b9050919050565b6000819050919050565b61064c83610617565b61066061065882610639565b8484546105b1565b825550505050565b600090565b610675610668565b610680818484610643565b505050565b5b818110156106a45761069960008261066d565b600181019050610686565b5050565b601f8211156106e9576106ba8161057f565b6106c384610594565b810160208510156106d2578190505b6106e66106de85610594565b830182610685565b50505b505050565b600082821c905092915050565b600061070c600019846008026106ee565b1980831691505092915050565b600061072583836106fb565b9150826002028217905092915050565b61073e8261037d565b67ffffffffffffffff81111561075757610756610209565b5b610761825461054e565b61076c8282856106a8565b600060209050601f83116001811461079f576000841561078d578287015190505b6107978582610719565b8655506107ff565b601f1984166107ad8661057f565b60005b828110156107d5578489015182556001820191506020850194506020810190506107b0565b868310156107f257848901516107ee601f8916826106fb565b8355505b6001600288020188555050505b50505050505056fea2646970667358221220d1973ca056d2fc7c265b387733f8029aaaf4203cab203dba14866967a513f1ee64736f6c63430008110033",
  "devdoc": {
    "kind": "dev",
    "methods": {},
    "version": 1
  },
  "userdoc": {
    "kind": "user",
    "methods": {},
    "version": 1
  },
  "storageLayout": {
    "storage": [
      {
        "astId": 855,
        "contract": "contracts/HelloWorld.sol:HelloWorld",
        "label": "greetingMessage",
        "offset": 0,
        "slot": "0",
        "type": "t_string_storage"
      }
    ],
    "types": {
      "t_string_storage": {
        "encoding": "bytes",
        "label": "string",
        "numberOfBytes": "32"
      }
    }
  }
}