{
  "address": "0x9fE46736679d2D9a65F0992F2272dE9f3c7fa6e0",
  "abi": [
    {
      "inputs": [],
      "stateMutability": "nonpayable",
      "type": "constructor"
    },
    {
      "anonymous": false,
      "inputs": [
        {
          "indexed": true,
          "internalType": "address",
          "name": "owner",
          "type": "address"
        },
        {
          "indexed": true,
          "internalType": "address",
          "name": "spender",
          "type": "address"
        },
        {
          "indexed": false,
          "internalType": "uint256",
          "name": "value",
          "type": "uint256"
        }
      ],
      "name": "Approval",
      "type": "event"
    },
    {
      "anonymous": false,
      "inputs": [
        {
          "indexed": true,
          "internalType": "address",
          "name": "from",
          "type": "address"
        },
        {
          "indexed": true,
          "internalType": "address",
          "name": "to",
          "type": "address"
        },
        {
          "indexed": false,
          "internalType": "uint256",
          "name": "value",
          "type": "uint256"
        }
      ],
      "name": "Transfer",
      "type": "event"
    },
    {
      "inputs": [
        {
          "internalType": "address",
          "name": "account",
          "type": "address"
        }
      ],
      "name": "addToWhitelist",
      "outputs": [],
      "stateMutability": "nonpayable",
      "type": "function"
    },
    {
      "inputs": [
        {
          "internalType": "address",
          "name": "owner",
          "type": "address"
        },
        {
          "internalType": "address",
          "name": "spender",
          "type": "address"
        }
      ],
      "name": "allowance",
      "outputs": [
        {
          "internalType": "uint256",
          "name": "",
          "type": "uint256"
        }
      ],
      "stateMutability": "view",
      "type": "function"
    },
    {
      "inputs": [
        {
          "internalType": "address",
          "name": "spender",
          "type": "address"
        },
        {
          "internalType": "uint256",
          "name": "amount",
          "type": "uint256"
        }
      ],
      "name": "approve",
      "outputs": [
        {
          "internalType": "bool",
          "name": "",
          "type": "bool"
        }
      ],
      "stateMutability": "nonpayable",
      "type": "function"
    },
    {
      "inputs": [
        {
          "internalType": "address",
          "name": "account",
          "type": "address"
        }
      ],
      "name": "balanceOf",
      "outputs": [
        {
          "internalType": "uint256",
          "name": "",
          "type": "uint256"
        }
      ],
      "stateMutability": "view",
      "type": "function"
    },
    {
      "inputs": [
        {
          "internalType": "address",
          "name": "account",
          "type": "address"
        },
        {
          "internalType": "uint256",
          "name": "amount",
          "type": "uint256"
        }
      ],
      "name": "burnFrom",
      "outputs": [],
      "stateMutability": "nonpayable",
      "type": "function"
    },
    {
      "inputs": [],
      "name": "decimals",
      "outputs": [
        {
          "internalType": "uint8",
          "name": "",
          "type": "uint8"
        }
      ],
      "stateMutability": "view",
      "type": "function"
    },
    {
      "inputs": [
        {
          "internalType": "address",
          "name": "spender",
          "type": "address"
        },
        {
          "internalType": "uint256",
          "name": "subtractedValue",
          "type": "uint256"
        }
      ],
      "name": "decreaseAllowance",
      "outputs": [
        {
          "internalType": "bool",
          "name": "",
          "type": "bool"
        }
      ],
      "stateMutability": "nonpayable",
      "type": "function"
    },
    {
      "inputs": [
        {
          "internalType": "address",
          "name": "spender",
          "type": "address"
        },
        {
          "internalType": "uint256",
          "name": "addedValue",
          "type": "uint256"
        }
      ],
      "name": "increaseAllowance",
      "outputs": [
        {
          "internalType": "bool",
          "name": "",
          "type": "bool"
        }
      ],
      "stateMutability": "nonpayable",
      "type": "function"
    },
    {
      "inputs": [],
      "name": "name",
      "outputs": [
        {
          "internalType": "string",
          "name": "",
          "type": "string"
        }
      ],
      "stateMutability": "view",
      "type": "function"
    },
    {
      "inputs": [],
      "name": "owner",
      "outputs": [
        {
          "internalType": "address",
          "name": "",
          "type": "address"
        }
      ],
      "stateMutability": "view",
      "type": "function"
    },
    {
      "inputs": [],
      "name": "symbol",
      "outputs": [
        {
          "internalType": "string",
          "name": "",
          "type": "string"
        }
      ],
      "stateMutability": "view",
      "type": "function"
    },
    {
      "inputs": [],
      "name": "totalSupply",
      "outputs": [
        {
          "internalType": "uint256",
          "name": "",
          "type": "uint256"
        }
      ],
      "stateMutability": "view",
      "type": "function"
    },
    {
      "inputs": [
        {
          "internalType": "address",
          "name": "to",
          "type": "address"
        },
        {
          "internalType": "uint256",
          "name": "amount",
          "type": "uint256"
        }
      ],
      "name": "transfer",
      "outputs": [
        {
          "internalType": "bool",
          "name": "",
          "type": "bool"
        }
      ],
      "stateMutability": "nonpayable",
      "type": "function"
    },
    {
      "inputs": [
        {
          "internalType": "address",
          "name": "from",
          "type": "address"
        },
        {
          "internalType": "address",
          "name": "to",
          "type": "address"
        },
        {
          "internalType": "uint256",
          "name": "amount",
          "type": "uint256"
        }
      ],
      "name": "transferFrom",
      "outputs": [
        {
          "internalType": "bool",
          "name": "",
          "type": "bool"
        }
      ],
      "stateMutability": "nonpayable",
      "type": "function"
    },
    {
      "inputs": [
        {
          "internalType": "address",
          "name": "recipient",
          "type": "address"
        },
        {
          "internalType": "uint256",
          "name": "amount",
          "type": "uint256"
        }
      ],
      "name": "transferTokens",
      "outputs": [],
      "stateMutability": "nonpayable",
      "type": "function"
    },
    {
      "inputs": [
        {
          "internalType": "address",
          "name": "",
          "type": "address"
        }
      ],
      "name": "whitelist",
      "outputs": [
        {
          "internalType": "bool",
          "name": "",
          "type": "bool"
        }
      ],
      "stateMutability": "view",
      "type": "function"
    },
    {
      "inputs": [],
      "name": "withdrawToken",
      "outputs": [],
      "stateMutability": "nonpayable",
      "type": "function"
    }
  ],
  "transactionHash": "0x057585258b7085f8f869c4b7830806f4e1f12b496244f589a46679382317adfd",
  "args": [],
  "numDeployments": 1,
  "solcInputHash": "f5ba3cb65acad8a291e277174cb05685",
  "bytecode": "0x60806040523480156200001157600080fd5b506040518060400160405280600781526020017f4d79546f6b656e000000000000000000000000000000000000000000000000008152506040518060400160405280600381526020017f4d544b000000000000000000000000000000000000000000000000000000000081525081600390816200008f9190620004ef565b508060049081620000a19190620004ef565b50505033600560006101000a81548173ffffffffffffffffffffffffffffffffffffffff021916908373ffffffffffffffffffffffffffffffffffffffff160217905550620000f830600a620000fe60201b60201c565b620006f1565b600073ffffffffffffffffffffffffffffffffffffffff168273ffffffffffffffffffffffffffffffffffffffff160362000170576040517f08c379a0000000000000000000000000000000000000000000000000000000008152600401620001679062000637565b60405180910390fd5b62000184600083836200026b60201b60201c565b806002600082825462000198919062000688565b92505081905550806000808473ffffffffffffffffffffffffffffffffffffffff1673ffffffffffffffffffffffffffffffffffffffff168152602001908152602001600020600082825401925050819055508173ffffffffffffffffffffffffffffffffffffffff16600073ffffffffffffffffffffffffffffffffffffffff167fddf252ad1be2c89b69c2b068fc378daa952ba7f163c4a11628f55a4df523b3ef836040516200024b9190620006d4565b60405180910390a362000267600083836200027060201b60201c565b5050565b505050565b505050565b600081519050919050565b7f4e487b7100000000000000000000000000000000000000000000000000000000600052604160045260246000fd5b7f4e487b7100000000000000000000000000000000000000000000000000000000600052602260045260246000fd5b60006002820490506001821680620002f757607f821691505b6020821081036200030d576200030c620002af565b5b50919050565b60008190508160005260206000209050919050565b60006020601f8301049050919050565b600082821b905092915050565b600060088302620003777fffffffffffffffffffffffffffffffffffffffffffffffffffffffffffffffff8262000338565b62000383868362000338565b95508019841693508086168417925050509392505050565b6000819050919050565b6000819050919050565b6000620003d0620003ca620003c4846200039b565b620003a5565b6200039b565b9050919050565b6000819050919050565b620003ec83620003af565b62000404620003fb82620003d7565b84845462000345565b825550505050565b600090565b6200041b6200040c565b62000428818484620003e1565b505050565b5b8181101562000450576200044460008262000411565b6001810190506200042e565b5050565b601f8211156200049f57620004698162000313565b620004748462000328565b8101602085101562000484578190505b6200049c620004938562000328565b8301826200042d565b50505b505050565b600082821c905092915050565b6000620004c460001984600802620004a4565b1980831691505092915050565b6000620004df8383620004b1565b9150826002028217905092915050565b620004fa8262000275565b67ffffffffffffffff81111562000516576200051562000280565b5b620005228254620002de565b6200052f82828562000454565b600060209050601f83116001811462000567576000841562000552578287015190505b6200055e8582620004d1565b865550620005ce565b601f198416620005778662000313565b60005b82811015620005a1578489015182556001820191506020850194506020810190506200057a565b86831015620005c15784890151620005bd601f891682620004b1565b8355505b6001600288020188555050505b505050505050565b600082825260208201905092915050565b7f45524332303a206d696e7420746f20746865207a65726f206164647265737300600082015250565b60006200061f601f83620005d6565b91506200062c82620005e7565b602082019050919050565b60006020820190508181036000830152620006528162000610565b9050919050565b7f4e487b7100000000000000000000000000000000000000000000000000000000600052601160045260246000fd5b600062000695826200039b565b9150620006a2836200039b565b9250828201905080821115620006bd57620006bc62000659565b5b92915050565b620006ce816200039b565b82525050565b6000602082019050620006eb6000830184620006c3565b92915050565b611a8680620007016000396000f3fe608060405234801561001057600080fd5b506004361061010b5760003560e01c80638da5cb5b116100a2578063a9059cbb11610071578063a9059cbb146102e2578063bec3fa1714610312578063ca628c781461032e578063dd62ed3e14610338578063e43252d7146103685761010b565b80638da5cb5b1461024657806395d89b41146102645780639b19251a14610282578063a457c2d7146102b25761010b565b8063313ce567116100de578063313ce567146101ac57806339509351146101ca57806370a08231146101fa57806379cc67901461022a5761010b565b806306fdde0314610110578063095ea7b31461012e57806318160ddd1461015e57806323b872dd1461017c575b600080fd5b610118610384565b604051610125919061105f565b60405180910390f35b6101486004803603810190610143919061111a565b610416565b6040516101559190611175565b60405180910390f35b610166610439565b604051610173919061119f565b60405180910390f35b610196600480360381019061019191906111ba565b610443565b6040516101a39190611175565b60405180910390f35b6101b4610472565b6040516101c19190611229565b60405180910390f35b6101e460048036038101906101df919061111a565b61047b565b6040516101f19190611175565b60405180910390f35b610214600480360381019061020f9190611244565b6104b2565b604051610221919061119f565b60405180910390f35b610244600480360381019061023f919061111a565b6104fa565b005b61024e610598565b60405161025b9190611280565b60405180910390f35b61026c6105be565b604051610279919061105f565b60405180910390f35b61029c60048036038101906102979190611244565b610650565b6040516102a99190611175565b60405180910390f35b6102cc60048036038101906102c7919061111a565b610670565b6040516102d99190611175565b60405180910390f35b6102fc60048036038101906102f7919061111a565b6106e7565b6040516103099190611175565b60405180910390f35b61032c6004803603810190610327919061111a565b61070a565b005b610336610719565b005b610352600480360381019061034d919061129b565b6107b3565b60405161035f919061119f565b60405180910390f35b610382600480360381019061037d9190611244565b61083a565b005b6060600380546103939061130a565b80601f01602080910402602001604051908101604052809291908181526020018280546103bf9061130a565b801561040c5780601f106103e15761010080835404028352916020019161040c565b820191906000526020600020905b8154815290600101906020018083116103ef57829003601f168201915b5050505050905090565b600080610421610925565b905061042e81858561092d565b600191505092915050565b6000600254905090565b60008061044e610925565b905061045b858285610af6565b610466858585610b82565b60019150509392505050565b60006012905090565b600080610486610925565b90506104a781858561049885896107b3565b6104a2919061136a565b61092d565b600191505092915050565b60008060008373ffffffffffffffffffffffffffffffffffffffff1673ffffffffffffffffffffffffffffffffffffffff168152602001908152602001600020549050919050565b600560009054906101000a900473ffffffffffffffffffffffffffffffffffffffff1673ffffffffffffffffffffffffffffffffffffffff163373ffffffffffffffffffffffffffffffffffffffff161461058a576040517f08c379a000000000000000000000000000000000000000000000000000000000815260040161058190611410565b60405180910390fd5b6105948282610df8565b5050565b600560009054906101000a900473ffffffffffffffffffffffffffffffffffffffff1681565b6060600480546105cd9061130a565b80601f01602080910402602001604051908101604052809291908181526020018280546105f99061130a565b80156106465780601f1061061b57610100808354040283529160200191610646565b820191906000526020600020905b81548152906001019060200180831161062957829003601f168201915b5050505050905090565b60066020528060005260406000206000915054906101000a900460ff1681565b60008061067b610925565b9050600061068982866107b3565b9050838110156106ce576040517f08c379a00000000000000000000000000000000000000000000000000000000081526004016106c5906114a2565b60405180910390fd5b6106db828686840361092d565b60019250505092915050565b6000806106f2610925565b90506106ff818585610b82565b600191505092915050565b610715338383610b82565b5050565b600660003373ffffffffffffffffffffffffffffffffffffffff1673ffffffffffffffffffffffffffffffffffffffff16815260200190815260200160002060009054906101000a900460ff166107a5576040517f08c379a000000000000000000000000000000000000000000000000000000000815260040161079c90611534565b60405180910390fd5b6107b130336001610b82565b565b6000600160008473ffffffffffffffffffffffffffffffffffffffff1673ffffffffffffffffffffffffffffffffffffffff16815260200190815260200160002060008373ffffffffffffffffffffffffffffffffffffffff1673ffffffffffffffffffffffffffffffffffffffff16815260200190815260200160002054905092915050565b600560009054906101000a900473ffffffffffffffffffffffffffffffffffffffff1673ffffffffffffffffffffffffffffffffffffffff163373ffffffffffffffffffffffffffffffffffffffff16146108ca576040517f08c379a00000000000000000000000000000000000000000000000000000000081526004016108c1906115c6565b60405180910390fd5b6001600660008373ffffffffffffffffffffffffffffffffffffffff1673ffffffffffffffffffffffffffffffffffffffff16815260200190815260200160002060006101000a81548160ff02191690831515021790555050565b600033905090565b600073ffffffffffffffffffffffffffffffffffffffff168373ffffffffffffffffffffffffffffffffffffffff160361099c576040517f08c379a000000000000000000000000000000000000000000000000000000000815260040161099390611658565b60405180910390fd5b600073ffffffffffffffffffffffffffffffffffffffff168273ffffffffffffffffffffffffffffffffffffffff1603610a0b576040517f08c379a0000000000000000000000000000000000000000000000000000000008152600401610a02906116ea565b60405180910390fd5b80600160008573ffffffffffffffffffffffffffffffffffffffff1673ffffffffffffffffffffffffffffffffffffffff16815260200190815260200160002060008473ffffffffffffffffffffffffffffffffffffffff1673ffffffffffffffffffffffffffffffffffffffff168152602001908152602001600020819055508173ffffffffffffffffffffffffffffffffffffffff168373ffffffffffffffffffffffffffffffffffffffff167f8c5be1e5ebec7d5bd14f71427d1e84f3dd0314c0f7b2291e5b200ac8c7c3b92583604051610ae9919061119f565b60405180910390a3505050565b6000610b0284846107b3565b90507fffffffffffffffffffffffffffffffffffffffffffffffffffffffffffffffff8114610b7c5781811015610b6e576040517f08c379a0000000000000000000000000000000000000000000000000000000008152600401610b6590611756565b60405180910390fd5b610b7b848484840361092d565b5b50505050565b600073ffffffffffffffffffffffffffffffffffffffff168373ffffffffffffffffffffffffffffffffffffffff1603610bf1576040517f08c379a0000000000000000000000000000000000000000000000000000000008152600401610be8906117e8565b60405180910390fd5b600073ffffffffffffffffffffffffffffffffffffffff168273ffffffffffffffffffffffffffffffffffffffff1603610c60576040517f08c379a0000000000000000000000000000000000000000000000000000000008152600401610c579061187a565b60405180910390fd5b610c6b838383610fc5565b60008060008573ffffffffffffffffffffffffffffffffffffffff1673ffffffffffffffffffffffffffffffffffffffff16815260200190815260200160002054905081811015610cf1576040517f08c379a0000000000000000000000000000000000000000000000000000000008152600401610ce89061190c565b60405180910390fd5b8181036000808673ffffffffffffffffffffffffffffffffffffffff1673ffffffffffffffffffffffffffffffffffffffff16815260200190815260200160002081905550816000808573ffffffffffffffffffffffffffffffffffffffff1673ffffffffffffffffffffffffffffffffffffffff168152602001908152602001600020600082825401925050819055508273ffffffffffffffffffffffffffffffffffffffff168473ffffffffffffffffffffffffffffffffffffffff167fddf252ad1be2c89b69c2b068fc378daa952ba7f163c4a11628f55a4df523b3ef84604051610ddf919061119f565b60405180910390a3610df2848484610fca565b50505050565b600073ffffffffffffffffffffffffffffffffffffffff168273ffffffffffffffffffffffffffffffffffffffff1603610e67576040517f08c379a0000000000000000000000000000000000000000000000000000000008152600401610e5e9061199e565b60405180910390fd5b610e7382600083610fc5565b60008060008473ffffffffffffffffffffffffffffffffffffffff1673ffffffffffffffffffffffffffffffffffffffff16815260200190815260200160002054905081811015610ef9576040517f08c379a0000000000000000000000000000000000000000000000000000000008152600401610ef090611a30565b60405180910390fd5b8181036000808573ffffffffffffffffffffffffffffffffffffffff1673ffffffffffffffffffffffffffffffffffffffff1681526020019081526020016000208190555081600260008282540392505081905550600073ffffffffffffffffffffffffffffffffffffffff168373ffffffffffffffffffffffffffffffffffffffff167fddf252ad1be2c89b69c2b068fc378daa952ba7f163c4a11628f55a4df523b3ef84604051610fac919061119f565b60405180910390a3610fc083600084610fca565b505050565b505050565b505050565b600081519050919050565b600082825260208201905092915050565b60005b83811015611009578082015181840152602081019050610fee565b60008484015250505050565b6000601f19601f8301169050919050565b600061103182610fcf565b61103b8185610fda565b935061104b818560208601610feb565b61105481611015565b840191505092915050565b600060208201905081810360008301526110798184611026565b905092915050565b600080fd5b600073ffffffffffffffffffffffffffffffffffffffff82169050919050565b60006110b182611086565b9050919050565b6110c1816110a6565b81146110cc57600080fd5b50565b6000813590506110de816110b8565b92915050565b6000819050919050565b6110f7816110e4565b811461110257600080fd5b50565b600081359050611114816110ee565b92915050565b6000806040838503121561113157611130611081565b5b600061113f858286016110cf565b925050602061115085828601611105565b9150509250929050565b60008115159050919050565b61116f8161115a565b82525050565b600060208201905061118a6000830184611166565b92915050565b611199816110e4565b82525050565b60006020820190506111b46000830184611190565b92915050565b6000806000606084860312156111d3576111d2611081565b5b60006111e1868287016110cf565b93505060206111f2868287016110cf565b925050604061120386828701611105565b9150509250925092565b600060ff82169050919050565b6112238161120d565b82525050565b600060208201905061123e600083018461121a565b92915050565b60006020828403121561125a57611259611081565b5b6000611268848285016110cf565b91505092915050565b61127a816110a6565b82525050565b60006020820190506112956000830184611271565b92915050565b600080604083850312156112b2576112b1611081565b5b60006112c0858286016110cf565b92505060206112d1858286016110cf565b9150509250929050565b7f4e487b7100000000000000000000000000000000000000000000000000000000600052602260045260246000fd5b6000600282049050600182168061132257607f821691505b602082108103611335576113346112db565b5b50919050565b7f4e487b7100000000000000000000000000000000000000000000000000000000600052601160045260246000fd5b6000611375826110e4565b9150611380836110e4565b92508282019050808211156113985761139761133b565b5b92915050565b7f4f6e6c792074686520636f6e7472616374206f776e65722063616e206275726e60008201527f20746f6b656e732066726f6d20616e79206163636f756e742e00000000000000602082015250565b60006113fa603983610fda565b91506114058261139e565b604082019050919050565b60006020820190508181036000830152611429816113ed565b9050919050565b7f45524332303a2064656372656173656420616c6c6f77616e63652062656c6f7760008201527f207a65726f000000000000000000000000000000000000000000000000000000602082015250565b600061148c602583610fda565b915061149782611430565b604082019050919050565b600060208201905081810360008301526114bb8161147f565b9050919050565b7f596f75206d7573742062652077686974656c697374656420746f20776974686460008201527f726177206120746f6b656e2e0000000000000000000000000000000000000000602082015250565b600061151e602c83610fda565b9150611529826114c2565b604082019050919050565b6000602082019050818103600083015261154d81611511565b9050919050565b7f4f6e6c792074686520636f6e7472616374206f776e65722063616e206164642060008201527f746f207468652077686974656c6973742e000000000000000000000000000000602082015250565b60006115b0603183610fda565b91506115bb82611554565b604082019050919050565b600060208201905081810360008301526115df816115a3565b9050919050565b7f45524332303a20617070726f76652066726f6d20746865207a65726f2061646460008201527f7265737300000000000000000000000000000000000000000000000000000000602082015250565b6000611642602483610fda565b915061164d826115e6565b604082019050919050565b6000602082019050818103600083015261167181611635565b9050919050565b7f45524332303a20617070726f766520746f20746865207a65726f20616464726560008201527f7373000000000000000000000000000000000000000000000000000000000000602082015250565b60006116d4602283610fda565b91506116df82611678565b604082019050919050565b60006020820190508181036000830152611703816116c7565b9050919050565b7f45524332303a20696e73756666696369656e7420616c6c6f77616e6365000000600082015250565b6000611740601d83610fda565b915061174b8261170a565b602082019050919050565b6000602082019050818103600083015261176f81611733565b9050919050565b7f45524332303a207472616e736665722066726f6d20746865207a65726f20616460008201527f6472657373000000000000000000000000000000000000000000000000000000602082015250565b60006117d2602583610fda565b91506117dd82611776565b604082019050919050565b60006020820190508181036000830152611801816117c5565b9050919050565b7f45524332303a207472616e7366657220746f20746865207a65726f206164647260008201527f6573730000000000000000000000000000000000000000000000000000000000602082015250565b6000611864602383610fda565b915061186f82611808565b604082019050919050565b6000602082019050818103600083015261189381611857565b9050919050565b7f45524332303a207472616e7366657220616d6f756e742065786365656473206260008201527f616c616e63650000000000000000000000000000000000000000000000000000602082015250565b60006118f6602683610fda565b91506119018261189a565b604082019050919050565b60006020820190508181036000830152611925816118e9565b9050919050565b7f45524332303a206275726e2066726f6d20746865207a65726f2061646472657360008201527f7300000000000000000000000000000000000000000000000000000000000000602082015250565b6000611988602183610fda565b91506119938261192c565b604082019050919050565b600060208201905081810360008301526119b78161197b565b9050919050565b7f45524332303a206275726e20616d6f756e7420657863656564732062616c616e60008201527f6365000000000000000000000000000000000000000000000000000000000000602082015250565b6000611a1a602283610fda565b9150611a25826119be565b604082019050919050565b60006020820190508181036000830152611a4981611a0d565b905091905056fea2646970667358221220a9debbd867d7a8038b0124e74abd7448c2928c71fa73b4dc997edc68e17c7c4164736f6c63430008110033",
  "devdoc": {
    "kind": "dev",
    "methods": {
      "allowance(address,address)": {
        "details": "See {IERC20-allowance}."
      },
      "approve(address,uint256)": {
        "details": "See {IERC20-approve}. NOTE: If `amount` is the maximum `uint256`, the allowance is not updated on `transferFrom`. This is semantically equivalent to an infinite approval. Requirements: - `spender` cannot be the zero address."
      },
      "balanceOf(address)": {
        "details": "See {IERC20-balanceOf}."
      },
      "decimals()": {
        "details": "Returns the number of decimals used to get its user representation. For example, if `decimals` equals `2`, a balance of `505` tokens should be displayed to a user as `5.05` (`505 / 10 ** 2`). Tokens usually opt for a value of 18, imitating the relationship between Ether and Wei. This is the default value returned by this function, unless it's overridden. NOTE: This information is only used for _display_ purposes: it in no way affects any of the arithmetic of the contract, including {IERC20-balanceOf} and {IERC20-transfer}."
      },
      "decreaseAllowance(address,uint256)": {
        "details": "Atomically decreases the allowance granted to `spender` by the caller. This is an alternative to {approve} that can be used as a mitigation for problems described in {IERC20-approve}. Emits an {Approval} event indicating the updated allowance. Requirements: - `spender` cannot be the zero address. - `spender` must have allowance for the caller of at least `subtractedValue`."
      },
      "increaseAllowance(address,uint256)": {
        "details": "Atomically increases the allowance granted to `spender` by the caller. This is an alternative to {approve} that can be used as a mitigation for problems described in {IERC20-approve}. Emits an {Approval} event indicating the updated allowance. Requirements: - `spender` cannot be the zero address."
      },
      "name()": {
        "details": "Returns the name of the token."
      },
      "symbol()": {
        "details": "Returns the symbol of the token, usually a shorter version of the name."
      },
      "totalSupply()": {
        "details": "See {IERC20-totalSupply}."
      },
      "transfer(address,uint256)": {
        "details": "See {IERC20-transfer}. Requirements: - `to` cannot be the zero address. - the caller must have a balance of at least `amount`."
      },
      "transferFrom(address,address,uint256)": {
        "details": "See {IERC20-transferFrom}. Emits an {Approval} event indicating the updated allowance. This is not required by the EIP. See the note at the beginning of {ERC20}. NOTE: Does not update the allowance if the current allowance is the maximum `uint256`. Requirements: - `from` and `to` cannot be the zero address. - `from` must have a balance of at least `amount`. - the caller must have allowance for ``from``'s tokens of at least `amount`."
      }
    },
    "version": 1
  },
  "userdoc": {
    "kind": "user",
    "methods": {},
    "version": 1
  },
  "storageLayout": {
    "storage": [
      {
        "astId": 15,
        "contract": "contracts/ERC20.sol:MyToken",
        "label": "_balances",
        "offset": 0,
        "slot": "0",
        "type": "t_mapping(t_address,t_uint256)"
      },
      {
        "astId": 21,
        "contract": "contracts/ERC20.sol:MyToken",
        "label": "_allowances",
        "offset": 0,
        "slot": "1",
        "type": "t_mapping(t_address,t_mapping(t_address,t_uint256))"
      },
      {
        "astId": 23,
        "contract": "contracts/ERC20.sol:MyToken",
        "label": "_totalSupply",
        "offset": 0,
        "slot": "2",
        "type": "t_uint256"
      },
      {
        "astId": 25,
        "contract": "contracts/ERC20.sol:MyToken",
        "label": "_name",
        "offset": 0,
        "slot": "3",
        "type": "t_string_storage"
      },
      {
        "astId": 27,
        "contract": "contracts/ERC20.sol:MyToken",
        "label": "_symbol",
        "offset": 0,
        "slot": "4",
        "type": "t_string_storage"
      },
      {
        "astId": 718,
        "contract": "contracts/ERC20.sol:MyToken",
        "label": "owner",
        "offset": 0,
        "slot": "5",
        "type": "t_address"
      },
      {
        "astId": 722,
        "contract": "contracts/ERC20.sol:MyToken",
        "label": "whitelist",
        "offset": 0,
        "slot": "6",
        "type": "t_mapping(t_address,t_bool)"
      }
    ],
    "types": {
      "t_address": {
        "encoding": "inplace",
        "label": "address",
        "numberOfBytes": "20"
      },
      "t_bool": {
        "encoding": "inplace",
        "label": "bool",
        "numberOfBytes": "1"
      },
      "t_mapping(t_address,t_bool)": {
        "encoding": "mapping",
        "key": "t_address",
        "label": "mapping(address => bool)",
        "numberOfBytes": "32",
        "value": "t_bool"
      },
      "t_mapping(t_address,t_mapping(t_address,t_uint256))": {
        "encoding": "mapping",
        "key": "t_address",
        "label": "mapping(address => mapping(address => uint256))",
        "numberOfBytes": "32",
        "value": "t_mapping(t_address,t_uint256)"
      },
      "t_mapping(t_address,t_uint256)": {
        "encoding": "mapping",
        "key": "t_address",
        "label": "mapping(address => uint256)",
        "numberOfBytes": "32",
        "value": "t_uint256"
      },
      "t_string_storage": {
        "encoding": "bytes",
        "label": "string",
        "numberOfBytes": "32"
      },
      "t_uint256": {
        "encoding": "inplace",
        "label": "uint256",
        "numberOfBytes": "32"
      }
    }
  }
}