{
  "address": "0xe7f1725E7734CE288F8367e1Bb143E90bb3F0512",
  "abi": [
    {
      "inputs": [
        {
          "internalType": "string",
          "name": "name",
          "type": "string"
        },
        {
          "internalType": "string",
          "name": "symbol",
          "type": "string"
        }
      ],
      "stateMutability": "nonpayable",
      "type": "constructor"
    },
    {
      "anonymous": false,
      "inputs": [
        {
          "indexed": true,
          "internalType": "address",
          "name": "owner",
          "type": "address"
        },
        {
          "indexed": true,
          "internalType": "address",
          "name": "approved",
          "type": "address"
        },
        {
          "indexed": true,
          "internalType": "uint256",
          "name": "tokenId",
          "type": "uint256"
        }
      ],
      "name": "Approval",
      "type": "event"
    },
    {
      "anonymous": false,
      "inputs": [
        {
          "indexed": true,
          "internalType": "address",
          "name": "owner",
          "type": "address"
        },
        {
          "indexed": true,
          "internalType": "address",
          "name": "operator",
          "type": "address"
        },
        {
          "indexed": false,
          "internalType": "bool",
          "name": "approved",
          "type": "bool"
        }
      ],
      "name": "ApprovalForAll",
      "type": "event"
    },
    {
      "anonymous": false,
      "inputs": [
        {
          "indexed": false,
          "internalType": "uint256",
          "name": "tokenID",
          "type": "uint256"
        }
      ],
      "name": "Burned",
      "type": "event"
    },
    {
      "anonymous": false,
      "inputs": [
        {
          "indexed": false,
          "internalType": "address",
          "name": "owner",
          "type": "address"
        },
        {
          "indexed": false,
          "internalType": "string",
          "name": "uri",
          "type": "string"
        },
        {
          "indexed": false,
          "internalType": "uint256",
          "name": "tokenID",
          "type": "uint256"
        }
      ],
      "name": "Minted",
      "type": "event"
    },
    {
      "anonymous": false,
      "inputs": [
        {
          "indexed": true,
          "internalType": "address",
          "name": "from",
          "type": "address"
        },
        {
          "indexed": true,
          "internalType": "address",
          "name": "to",
          "type": "address"
        },
        {
          "indexed": true,
          "internalType": "uint256",
          "name": "tokenId",
          "type": "uint256"
        }
      ],
      "name": "Transfer",
      "type": "event"
    },
    {
      "inputs": [
        {
          "internalType": "address",
          "name": "new_signer",
          "type": "address"
        }
      ],
      "name": "addSigner",
      "outputs": [],
      "stateMutability": "nonpayable",
      "type": "function"
    },
    {
      "inputs": [
        {
          "internalType": "address",
          "name": "to",
          "type": "address"
        },
        {
          "internalType": "uint256",
          "name": "tokenId",
          "type": "uint256"
        }
      ],
      "name": "approve",
      "outputs": [],
      "stateMutability": "nonpayable",
      "type": "function"
    },
    {
      "inputs": [
        {
          "internalType": "address",
          "name": "",
          "type": "address"
        }
      ],
      "name": "approved",
      "outputs": [
        {
          "internalType": "bool",
          "name": "",
          "type": "bool"
        }
      ],
      "stateMutability": "view",
      "type": "function"
    },
    {
      "inputs": [
        {
          "internalType": "address",
          "name": "owner",
          "type": "address"
        }
      ],
      "name": "balanceOf",
      "outputs": [
        {
          "internalType": "uint256",
          "name": "",
          "type": "uint256"
        }
      ],
      "stateMutability": "view",
      "type": "function"
    },
    {
      "inputs": [
        {
          "internalType": "uint256",
          "name": "tokenId",
          "type": "uint256"
        }
      ],
      "name": "burnFor",
      "outputs": [],
      "stateMutability": "nonpayable",
      "type": "function"
    },
    {
      "inputs": [],
      "name": "contractOwner",
      "outputs": [
        {
          "internalType": "address",
          "name": "",
          "type": "address"
        }
      ],
      "stateMutability": "view",
      "type": "function"
    },
    {
      "inputs": [
        {
          "internalType": "address",
          "name": "ex_approver",
          "type": "address"
        }
      ],
      "name": "delSigner",
      "outputs": [],
      "stateMutability": "nonpayable",
      "type": "function"
    },
    {
      "inputs": [
        {
          "internalType": "uint256",
          "name": "tokenId",
          "type": "uint256"
        }
      ],
      "name": "getApproved",
      "outputs": [
        {
          "internalType": "address",
          "name": "",
          "type": "address"
        }
      ],
      "stateMutability": "view",
      "type": "function"
    },
    {
      "inputs": [
        {
          "internalType": "address",
          "name": "owner",
          "type": "address"
        },
        {
          "internalType": "address",
          "name": "operator",
          "type": "address"
        }
      ],
      "name": "isApprovedForAll",
      "outputs": [
        {
          "internalType": "bool",
          "name": "",
          "type": "bool"
        }
      ],
      "stateMutability": "view",
      "type": "function"
    },
    {
      "inputs": [
        {
          "internalType": "address",
          "name": "recipient",
          "type": "address"
        },
        {
          "internalType": "string",
          "name": "_tokenURI",
          "type": "string"
        }
      ],
      "name": "mintFor",
      "outputs": [],
      "stateMutability": "nonpayable",
      "type": "function"
    },
    {
      "inputs": [],
      "name": "name",
      "outputs": [
        {
          "internalType": "string",
          "name": "",
          "type": "string"
        }
      ],
      "stateMutability": "view",
      "type": "function"
    },
    {
      "inputs": [
        {
          "internalType": "uint256",
          "name": "tokenId",
          "type": "uint256"
        }
      ],
      "name": "ownerOf",
      "outputs": [
        {
          "internalType": "address",
          "name": "",
          "type": "address"
        }
      ],
      "stateMutability": "view",
      "type": "function"
    },
    {
      "inputs": [
        {
          "internalType": "address",
          "name": "from",
          "type": "address"
        },
        {
          "internalType": "address",
          "name": "to",
          "type": "address"
        },
        {
          "internalType": "uint256",
          "name": "tokenId",
          "type": "uint256"
        }
      ],
      "name": "safeTransferFrom",
      "outputs": [],
      "stateMutability": "nonpayable",
      "type": "function"
    },
    {
      "inputs": [
        {
          "internalType": "address",
          "name": "from",
          "type": "address"
        },
        {
          "internalType": "address",
          "name": "to",
          "type": "address"
        },
        {
          "internalType": "uint256",
          "name": "tokenId",
          "type": "uint256"
        },
        {
          "internalType": "bytes",
          "name": "data",
          "type": "bytes"
        }
      ],
      "name": "safeTransferFrom",
      "outputs": [],
      "stateMutability": "nonpayable",
      "type": "function"
    },
    {
      "inputs": [
        {
          "internalType": "address",
          "name": "operator",
          "type": "address"
        },
        {
          "internalType": "bool",
          "name": "approved",
          "type": "bool"
        }
      ],
      "name": "setApprovalForAll",
      "outputs": [],
      "stateMutability": "nonpayable",
      "type": "function"
    },
    {
      "inputs": [
        {
          "internalType": "uint256",
          "name": "",
          "type": "uint256"
        }
      ],
      "name": "signers",
      "outputs": [
        {
          "internalType": "address",
          "name": "",
          "type": "address"
        }
      ],
      "stateMutability": "view",
      "type": "function"
    },
    {
      "inputs": [
        {
          "internalType": "bytes4",
          "name": "interfaceId",
          "type": "bytes4"
        }
      ],
      "name": "supportsInterface",
      "outputs": [
        {
          "internalType": "bool",
          "name": "",
          "type": "bool"
        }
      ],
      "stateMutability": "view",
      "type": "function"
    },
    {
      "inputs": [],
      "name": "symbol",
      "outputs": [
        {
          "internalType": "string",
          "name": "",
          "type": "string"
        }
      ],
      "stateMutability": "view",
      "type": "function"
    },
    {
      "inputs": [
        {
          "internalType": "uint256",
          "name": "index",
          "type": "uint256"
        }
      ],
      "name": "tokenByIndex",
      "outputs": [
        {
          "internalType": "uint256",
          "name": "",
          "type": "uint256"
        }
      ],
      "stateMutability": "view",
      "type": "function"
    },
    {
      "inputs": [],
      "name": "tokenCounter",
      "outputs": [
        {
          "internalType": "uint256",
          "name": "",
          "type": "uint256"
        }
      ],
      "stateMutability": "view",
      "type": "function"
    },
    {
      "inputs": [
        {
          "internalType": "address",
          "name": "owner",
          "type": "address"
        },
        {
          "internalType": "uint256",
          "name": "index",
          "type": "uint256"
        }
      ],
      "name": "tokenOfOwnerByIndex",
      "outputs": [
        {
          "internalType": "uint256",
          "name": "",
          "type": "uint256"
        }
      ],
      "stateMutability": "view",
      "type": "function"
    },
    {
      "inputs": [
        {
          "internalType": "uint256",
          "name": "_tokenId",
          "type": "uint256"
        }
      ],
      "name": "tokenURI",
      "outputs": [
        {
          "internalType": "string",
          "name": "",
          "type": "string"
        }
      ],
      "stateMutability": "view",
      "type": "function"
    },
    {
      "inputs": [],
      "name": "totalSupply",
      "outputs": [
        {
          "internalType": "uint256",
          "name": "",
          "type": "uint256"
        }
      ],
      "stateMutability": "view",
      "type": "function"
    },
    {
      "inputs": [
        {
          "internalType": "address",
          "name": "from",
          "type": "address"
        },
        {
          "internalType": "address",
          "name": "to",
          "type": "address"
        },
        {
          "internalType": "uint256",
          "name": "tokenId",
          "type": "uint256"
        }
      ],
      "name": "transferFrom",
      "outputs": [],
      "stateMutability": "nonpayable",
      "type": "function"
    }
  ],
  "transactionHash": "0xe26c65960798c6cb53100457a59e06845a3d8c7072efeacdd970af35c94a0a28",
  "args": [
    "NFT Collection",
    "NFT"
  ],
  "numDeployments": 1,
  "solcInputHash": "23e9bf87a21577bb7e21603e0b37709b",
  "bytecode": "0x60806040523480156200001157600080fd5b50604051620045983803806200459883398181016040528101906200003791906200024b565b818181600090816200004a91906200051b565b5080600190816200005c91906200051b565b5050506001600a819055506000600b8190555033600c60006101000a81548173ffffffffffffffffffffffffffffffffffffffff021916908373ffffffffffffffffffffffffffffffffffffffff160217905550505062000602565b6000604051905090565b600080fd5b600080fd5b600080fd5b600080fd5b6000601f19601f8301169050919050565b7f4e487b7100000000000000000000000000000000000000000000000000000000600052604160045260246000fd5b6200012182620000d6565b810181811067ffffffffffffffff82111715620001435762000142620000e7565b5b80604052505050565b600062000158620000b8565b905062000166828262000116565b919050565b600067ffffffffffffffff821115620001895762000188620000e7565b5b6200019482620000d6565b9050602081019050919050565b60005b83811015620001c1578082015181840152602081019050620001a4565b60008484015250505050565b6000620001e4620001de846200016b565b6200014c565b905082815260208101848484011115620002035762000202620000d1565b5b62000210848285620001a1565b509392505050565b600082601f83011262000230576200022f620000cc565b5b815162000242848260208601620001cd565b91505092915050565b60008060408385031215620002655762000264620000c2565b5b600083015167ffffffffffffffff811115620002865762000285620000c7565b5b620002948582860162000218565b925050602083015167ffffffffffffffff811115620002b857620002b7620000c7565b5b620002c68582860162000218565b9150509250929050565b600081519050919050565b7f4e487b7100000000000000000000000000000000000000000000000000000000600052602260045260246000fd5b600060028204905060018216806200032357607f821691505b602082108103620003395762000338620002db565b5b50919050565b60008190508160005260206000209050919050565b60006020601f8301049050919050565b600082821b905092915050565b600060088302620003a37fffffffffffffffffffffffffffffffffffffffffffffffffffffffffffffffff8262000364565b620003af868362000364565b95508019841693508086168417925050509392505050565b6000819050919050565b6000819050919050565b6000620003fc620003f6620003f084620003c7565b620003d1565b620003c7565b9050919050565b6000819050919050565b6200041883620003db565b62000430620004278262000403565b84845462000371565b825550505050565b600090565b6200044762000438565b620004548184846200040d565b505050565b5b818110156200047c57620004706000826200043d565b6001810190506200045a565b5050565b601f821115620004cb5762000495816200033f565b620004a08462000354565b81016020851015620004b0578190505b620004c8620004bf8562000354565b83018262000459565b50505b505050565b600082821c905092915050565b6000620004f060001984600802620004d0565b1980831691505092915050565b60006200050b8383620004dd565b9150826002028217905092915050565b6200052682620002d0565b67ffffffffffffffff811115620005425762000541620000e7565b5b6200054e82546200030a565b6200055b82828562000480565b600060209050601f8311600181146200059357600084156200057e578287015190505b6200058a8582620004fd565b865550620005fa565b601f198416620005a3866200033f565b60005b82811015620005cd57848901518255600182019150602085019450602081019050620005a6565b86831015620005ed5784890151620005e9601f891682620004dd565b8355505b6001600288020188555050505b505050505050565b613f8680620006126000396000f3fe608060405234801561001057600080fd5b50600436106101585760003560e01c80636f5d0f0b116100c3578063c87b56dd1161007c578063c87b56dd146103e7578063ce606ee014610417578063d082e38114610435578063d8b964e614610453578063e985e9c514610483578063eb12d61e146104b357610158565b80636f5d0f0b1461032957806370a0823114610345578063883b524f1461037557806395d89b4114610391578063a22cb465146103af578063b88d4fde146103cb57610158565b806323b872dd1161011557806323b872dd146102455780632f745c591461026157806342842e0e146102915780634ed6a5f7146102ad5780634f6ccce7146102c95780636352211e146102f957610158565b806301ffc9a71461015d57806306fdde031461018d578063081812fc146101ab578063095ea7b3146101db57806318160ddd146101f75780632079fb9a14610215575b600080fd5b610177600480360381019061017291906129c2565b6104cf565b6040516101849190612a0a565b60405180910390f35b610195610549565b6040516101a29190612ab5565b60405180910390f35b6101c560048036038101906101c09190612b0d565b6105db565b6040516101d29190612b7b565b60405180910390f35b6101f560048036038101906101f09190612bc2565b610621565b005b6101ff610738565b60405161020c9190612c11565b60405180910390f35b61022f600480360381019061022a9190612b0d565b610745565b60405161023c9190612b7b565b60405180910390f35b61025f600480360381019061025a9190612c2c565b610784565b005b61027b60048036038101906102769190612bc2565b6107e4565b6040516102889190612c11565b60405180910390f35b6102ab60048036038101906102a69190612c2c565b610889565b005b6102c760048036038101906102c29190612db4565b6108a9565b005b6102e360048036038101906102de9190612b0d565b6109e8565b6040516102f09190612c11565b60405180910390f35b610313600480360381019061030e9190612b0d565b610a59565b6040516103209190612b7b565b60405180910390f35b610343600480360381019061033e9190612b0d565b610adf565b005b61035f600480360381019061035a9190612e10565b610bf8565b60405161036c9190612c11565b60405180910390f35b61038f600480360381019061038a9190612e10565b610caf565b005b610399611072565b6040516103a69190612ab5565b60405180910390f35b6103c960048036038101906103c49190612e69565b611104565b005b6103e560048036038101906103e09190612f4a565b61111a565b005b61040160048036038101906103fc9190612b0d565b61117c565b60405161040e9190612ab5565b60405180910390f35b61041f611269565b60405161042c9190612b7b565b60405180910390f35b61043d61128f565b60405161044a9190612c11565b60405180910390f35b61046d60048036038101906104689190612e10565b611295565b60405161047a9190612a0a565b60405180910390f35b61049d60048036038101906104989190612fcd565b6112b5565b6040516104aa9190612a0a565b60405180910390f35b6104cd60048036038101906104c89190612e10565b611349565b005b60007f780e9d63000000000000000000000000000000000000000000000000000000007bffffffffffffffffffffffffffffffffffffffffffffffffffffffff1916827bffffffffffffffffffffffffffffffffffffffffffffffffffffffff1916148061054257506105418261150e565b5b9050919050565b6060600080546105589061303c565b80601f01602080910402602001604051908101604052809291908181526020018280546105849061303c565b80156105d15780601f106105a6576101008083540402835291602001916105d1565b820191906000526020600020905b8154815290600101906020018083116105b457829003601f168201915b5050505050905090565b60006105e6826115f0565b6004600083815260200190815260200160002060009054906101000a900473ffffffffffffffffffffffffffffffffffffffff169050919050565b600061062c82610a59565b90508073ffffffffffffffffffffffffffffffffffffffff168373ffffffffffffffffffffffffffffffffffffffff160361069c576040517f08c379a0000000000000000000000000000000000000000000000000000000008152600401610693906130df565b60405180910390fd5b8073ffffffffffffffffffffffffffffffffffffffff166106bb61163b565b73ffffffffffffffffffffffffffffffffffffffff1614806106ea57506106e9816106e461163b565b6112b5565b5b610729576040517f08c379a000000000000000000000000000000000000000000000000000000000815260040161072090613171565b60405180910390fd5b6107338383611643565b505050565b6000600880549050905090565b600f818154811061075557600080fd5b906000526020600020016000915054906101000a900473ffffffffffffffffffffffffffffffffffffffff1681565b61079561078f61163b565b826116fc565b6107d4576040517f08c379a00000000000000000000000000000000000000000000000000000000081526004016107cb90613203565b60405180910390fd5b6107df838383611791565b505050565b60006107ef83610bf8565b8210610830576040517f08c379a000000000000000000000000000000000000000000000000000000000815260040161082790613295565b60405180910390fd5b600660008473ffffffffffffffffffffffffffffffffffffffff1673ffffffffffffffffffffffffffffffffffffffff168152602001908152602001600020600083815260200190815260200160002054905092915050565b6108a48383836040518060200160405280600081525061111a565b505050565b6108b1611a8a565b600e60003373ffffffffffffffffffffffffffffffffffffffff1673ffffffffffffffffffffffffffffffffffffffff16815260200190815260200160002060009054906101000a900460ff16806109565750600c60009054906101000a900473ffffffffffffffffffffffffffffffffffffffff1673ffffffffffffffffffffffffffffffffffffffff163373ffffffffffffffffffffffffffffffffffffffff16145b61095f57600080fd5b6000600b549050610974600084836001611ad9565b61097e8382611c37565b6109888183611c55565b600b600081548092919061099b906132e4565b91905055507fe678c8da3d2d6082f140bbbaa1ee822f0c7072ab604536db4a3e0315f8a927768383836040516109d39392919061332c565b60405180910390a1506109e4611cc2565b5050565b60006109f2610738565b8210610a33576040517f08c379a0000000000000000000000000000000000000000000000000000000008152600401610a2a906133dc565b60405180910390fd5b60088281548110610a4757610a466133fc565b5b90600052602060002001549050919050565b600080610a6583611ccc565b9050600073ffffffffffffffffffffffffffffffffffffffff168173ffffffffffffffffffffffffffffffffffffffff1603610ad6576040517f08c379a0000000000000000000000000000000000000000000000000000000008152600401610acd90613477565b60405180910390fd5b80915050919050565b610ae7611a8a565b600e60003373ffffffffffffffffffffffffffffffffffffffff1673ffffffffffffffffffffffffffffffffffffffff16815260200190815260200160002060009054906101000a900460ff1680610b8c5750600c60009054906101000a900473ffffffffffffffffffffffffffffffffffffffff1673ffffffffffffffffffffffffffffffffffffffff163373ffffffffffffffffffffffffffffffffffffffff16145b610b9557600080fd5b610b9e81611d09565b600b6000815480929190610bb190613497565b91905055507fd83c63197e8e676d80ab0122beba9a9d20f3828839e9a1d6fe81d242e9cd7e6e81604051610be59190612c11565b60405180910390a1610bf5611cc2565b50565b60008073ffffffffffffffffffffffffffffffffffffffff168273ffffffffffffffffffffffffffffffffffffffff1603610c68576040517f08c379a0000000000000000000000000000000000000000000000000000000008152600401610c5f90613532565b60405180910390fd5b600360008373ffffffffffffffffffffffffffffffffffffffff1673ffffffffffffffffffffffffffffffffffffffff168152602001908152602001600020549050919050565b610cb7611a8a565b33600c60009054906101000a900473ffffffffffffffffffffffffffffffffffffffff1673ffffffffffffffffffffffffffffffffffffffff168173ffffffffffffffffffffffffffffffffffffffff1614610d1257600080fd5b600c60009054906101000a900473ffffffffffffffffffffffffffffffffffffffff1673ffffffffffffffffffffffffffffffffffffffff168273ffffffffffffffffffffffffffffffffffffffff1603610da2576040517f08c379a0000000000000000000000000000000000000000000000000000000008152600401610d999061359e565b60405180910390fd5b6000600f8054905011610dea576040517f08c379a0000000000000000000000000000000000000000000000000000000008152600401610de19061360a565b60405180910390fd5b610df382611e57565b610e32576040517f08c379a0000000000000000000000000000000000000000000000000000000008152600401610e2990613676565b60405180910390fd5b6000600f8054905090506000600182610e4b9190613696565b67ffffffffffffffff811115610e6457610e63612c89565b5b604051908082528060200260200182016040528015610e925781602001602082028036833780820191505090505b50905060005b8281101561104c578473ffffffffffffffffffffffffffffffffffffffff16600f8281548110610ecb57610eca6133fc565b5b9060005260206000200160009054906101000a900473ffffffffffffffffffffffffffffffffffffffff1673ffffffffffffffffffffffffffffffffffffffff1614610fa257600f8181548110610f2557610f246133fc565b5b9060005260206000200160009054906101000a900473ffffffffffffffffffffffffffffffffffffffff16828281518110610f6357610f626133fc565b5b602002602001019073ffffffffffffffffffffffffffffffffffffffff16908173ffffffffffffffffffffffffffffffffffffffff1681525050611039565b6000600e6000600f8481548110610fbc57610fbb6133fc565b5b9060005260206000200160009054906101000a900473ffffffffffffffffffffffffffffffffffffffff1673ffffffffffffffffffffffffffffffffffffffff1673ffffffffffffffffffffffffffffffffffffffff16815260200190815260200160002060006101000a81548160ff0219169083151502179055505b8080611044906132e4565b915050610e98565b5080600f90805190602001906110639291906128af565b5050505061106f611cc2565b50565b6060600180546110819061303c565b80601f01602080910402602001604051908101604052809291908181526020018280546110ad9061303c565b80156110fa5780601f106110cf576101008083540402835291602001916110fa565b820191906000526020600020905b8154815290600101906020018083116110dd57829003601f168201915b5050505050905090565b61111661110f61163b565b8383611f08565b5050565b61112b61112561163b565b836116fc565b61116a576040517f08c379a000000000000000000000000000000000000000000000000000000000815260040161116190613203565b60405180910390fd5b61117684848484612074565b50505050565b6060611187826120d0565b6111c6576040517f08c379a00000000000000000000000000000000000000000000000000000000081526004016111bd9061373c565b60405180910390fd5b600d600083815260200190815260200160002080546111e49061303c565b80601f01602080910402602001604051908101604052809291908181526020018280546112109061303c565b801561125d5780601f106112325761010080835404028352916020019161125d565b820191906000526020600020905b81548152906001019060200180831161124057829003601f168201915b50505050509050919050565b600c60009054906101000a900473ffffffffffffffffffffffffffffffffffffffff1681565b600b5481565b600e6020528060005260406000206000915054906101000a900460ff1681565b6000600560008473ffffffffffffffffffffffffffffffffffffffff1673ffffffffffffffffffffffffffffffffffffffff16815260200190815260200160002060008373ffffffffffffffffffffffffffffffffffffffff1673ffffffffffffffffffffffffffffffffffffffff16815260200190815260200160002060009054906101000a900460ff16905092915050565b611351611a8a565b600e60003373ffffffffffffffffffffffffffffffffffffffff1673ffffffffffffffffffffffffffffffffffffffff16815260200190815260200160002060009054906101000a900460ff16806113f65750600c60009054906101000a900473ffffffffffffffffffffffffffffffffffffffff1673ffffffffffffffffffffffffffffffffffffffff163373ffffffffffffffffffffffffffffffffffffffff16145b6113ff57600080fd5b61140881611e57565b15611448576040517f08c379a000000000000000000000000000000000000000000000000000000000815260040161143f906137a8565b60405180910390fd5b600f819080600181540180825580915050600190039060005260206000200160009091909190916101000a81548173ffffffffffffffffffffffffffffffffffffffff021916908373ffffffffffffffffffffffffffffffffffffffff1602179055506001600e60008373ffffffffffffffffffffffffffffffffffffffff1673ffffffffffffffffffffffffffffffffffffffff16815260200190815260200160002060006101000a81548160ff02191690831515021790555061150b611cc2565b50565b60007f80ac58cd000000000000000000000000000000000000000000000000000000007bffffffffffffffffffffffffffffffffffffffffffffffffffffffff1916827bffffffffffffffffffffffffffffffffffffffffffffffffffffffff191614806115d957507f5b5e139f000000000000000000000000000000000000000000000000000000007bffffffffffffffffffffffffffffffffffffffffffffffffffffffff1916827bffffffffffffffffffffffffffffffffffffffffffffffffffffffff1916145b806115e957506115e882612111565b5b9050919050565b6115f9816120d0565b611638576040517f08c379a000000000000000000000000000000000000000000000000000000000815260040161162f90613477565b60405180910390fd5b50565b600033905090565b816004600083815260200190815260200160002060006101000a81548173ffffffffffffffffffffffffffffffffffffffff021916908373ffffffffffffffffffffffffffffffffffffffff160217905550808273ffffffffffffffffffffffffffffffffffffffff166116b683610a59565b73ffffffffffffffffffffffffffffffffffffffff167f8c5be1e5ebec7d5bd14f71427d1e84f3dd0314c0f7b2291e5b200ac8c7c3b92560405160405180910390a45050565b60008061170883610a59565b90508073ffffffffffffffffffffffffffffffffffffffff168473ffffffffffffffffffffffffffffffffffffffff16148061174a575061174981856112b5565b5b8061178857508373ffffffffffffffffffffffffffffffffffffffff16611770846105db565b73ffffffffffffffffffffffffffffffffffffffff16145b91505092915050565b8273ffffffffffffffffffffffffffffffffffffffff166117b182610a59565b73ffffffffffffffffffffffffffffffffffffffff1614611807576040517f08c379a00000000000000000000000000000000000000000000000000000000081526004016117fe9061383a565b60405180910390fd5b600073ffffffffffffffffffffffffffffffffffffffff168273ffffffffffffffffffffffffffffffffffffffff1603611876576040517f08c379a000000000000000000000000000000000000000000000000000000000815260040161186d906138cc565b60405180910390fd5b6118838383836001611ad9565b8273ffffffffffffffffffffffffffffffffffffffff166118a382610a59565b73ffffffffffffffffffffffffffffffffffffffff16146118f9576040517f08c379a00000000000000000000000000000000000000000000000000000000081526004016118f09061383a565b60405180910390fd5b6004600082815260200190815260200160002060006101000a81549073ffffffffffffffffffffffffffffffffffffffff02191690556001600360008573ffffffffffffffffffffffffffffffffffffffff1673ffffffffffffffffffffffffffffffffffffffff168152602001908152602001600020600082825403925050819055506001600360008473ffffffffffffffffffffffffffffffffffffffff1673ffffffffffffffffffffffffffffffffffffffff16815260200190815260200160002060008282540192505081905550816002600083815260200190815260200160002060006101000a81548173ffffffffffffffffffffffffffffffffffffffff021916908373ffffffffffffffffffffffffffffffffffffffff160217905550808273ffffffffffffffffffffffffffffffffffffffff168473ffffffffffffffffffffffffffffffffffffffff167fddf252ad1be2c89b69c2b068fc378daa952ba7f163c4a11628f55a4df523b3ef60405160405180910390a4611a85838383600161217b565b505050565b6002600a5403611acf576040517f08c379a0000000000000000000000000000000000000000000000000000000008152600401611ac690613938565b60405180910390fd5b6002600a81905550565b611ae584848484612181565b6001811115611b29576040517f08c379a0000000000000000000000000000000000000000000000000000000008152600401611b20906139ca565b60405180910390fd5b6000829050600073ffffffffffffffffffffffffffffffffffffffff168573ffffffffffffffffffffffffffffffffffffffff1603611b7057611b6b81612187565b611baf565b8373ffffffffffffffffffffffffffffffffffffffff168573ffffffffffffffffffffffffffffffffffffffff1614611bae57611bad85826121d0565b5b5b600073ffffffffffffffffffffffffffffffffffffffff168473ffffffffffffffffffffffffffffffffffffffff1603611bf157611bec8161233d565b611c30565b8473ffffffffffffffffffffffffffffffffffffffff168473ffffffffffffffffffffffffffffffffffffffff1614611c2f57611c2e848261240e565b5b5b5050505050565b611c5182826040518060200160405280600081525061248d565b5050565b611c5e826120d0565b611c9d576040517f08c379a0000000000000000000000000000000000000000000000000000000008152600401611c949061373c565b60405180910390fd5b80600d60008481526020019081526020016000209081611cbd9190613b96565b505050565b6001600a81905550565b60006002600083815260200190815260200160002060009054906101000a900473ffffffffffffffffffffffffffffffffffffffff169050919050565b6000611d1482610a59565b9050611d24816000846001611ad9565b611d2d82610a59565b90506004600083815260200190815260200160002060006101000a81549073ffffffffffffffffffffffffffffffffffffffff02191690556001600360008373ffffffffffffffffffffffffffffffffffffffff1673ffffffffffffffffffffffffffffffffffffffff168152602001908152602001600020600082825403925050819055506002600083815260200190815260200160002060006101000a81549073ffffffffffffffffffffffffffffffffffffffff021916905581600073ffffffffffffffffffffffffffffffffffffffff168273ffffffffffffffffffffffffffffffffffffffff167fddf252ad1be2c89b69c2b068fc378daa952ba7f163c4a11628f55a4df523b3ef60405160405180910390a4611e5381600084600161217b565b5050565b600080600f80549050905060005b81811015611efc578373ffffffffffffffffffffffffffffffffffffffff16600f8281548110611e9857611e976133fc565b5b9060005260206000200160009054906101000a900473ffffffffffffffffffffffffffffffffffffffff1673ffffffffffffffffffffffffffffffffffffffff1603611ee957600192505050611f03565b8080611ef4906132e4565b915050611e65565b5060009150505b919050565b8173ffffffffffffffffffffffffffffffffffffffff168373ffffffffffffffffffffffffffffffffffffffff1603611f76576040517f08c379a0000000000000000000000000000000000000000000000000000000008152600401611f6d90613cb4565b60405180910390fd5b80600560008573ffffffffffffffffffffffffffffffffffffffff1673ffffffffffffffffffffffffffffffffffffffff16815260200190815260200160002060008473ffffffffffffffffffffffffffffffffffffffff1673ffffffffffffffffffffffffffffffffffffffff16815260200190815260200160002060006101000a81548160ff0219169083151502179055508173ffffffffffffffffffffffffffffffffffffffff168373ffffffffffffffffffffffffffffffffffffffff167f17307eab39ab6107e8899845ad3d59bd9653f200f220920489ca2b5937696c31836040516120679190612a0a565b60405180910390a3505050565b61207f848484611791565b61208b848484846124e8565b6120ca576040517f08c379a00000000000000000000000000000000000000000000000000000000081526004016120c190613d46565b60405180910390fd5b50505050565b60008073ffffffffffffffffffffffffffffffffffffffff166120f283611ccc565b73ffffffffffffffffffffffffffffffffffffffff1614159050919050565b60007f01ffc9a7000000000000000000000000000000000000000000000000000000007bffffffffffffffffffffffffffffffffffffffffffffffffffffffff1916827bffffffffffffffffffffffffffffffffffffffffffffffffffffffff1916149050919050565b50505050565b50505050565b6008805490506009600083815260200190815260200160002081905550600881908060018154018082558091505060019003906000526020600020016000909190919091505550565b600060016121dd84610bf8565b6121e79190613696565b90506000600760008481526020019081526020016000205490508181146122cc576000600660008673ffffffffffffffffffffffffffffffffffffffff1673ffffffffffffffffffffffffffffffffffffffff168152602001908152602001600020600084815260200190815260200160002054905080600660008773ffffffffffffffffffffffffffffffffffffffff1673ffffffffffffffffffffffffffffffffffffffff168152602001908152602001600020600084815260200190815260200160002081905550816007600083815260200190815260200160002081905550505b6007600084815260200190815260200160002060009055600660008573ffffffffffffffffffffffffffffffffffffffff1673ffffffffffffffffffffffffffffffffffffffff16815260200190815260200160002060008381526020019081526020016000206000905550505050565b600060016008805490506123519190613696565b9050600060096000848152602001908152602001600020549050600060088381548110612381576123806133fc565b5b9060005260206000200154905080600883815481106123a3576123a26133fc565b5b9060005260206000200181905550816009600083815260200190815260200160002081905550600960008581526020019081526020016000206000905560088054806123f2576123f1613d66565b5b6001900381819060005260206000200160009055905550505050565b600061241983610bf8565b905081600660008573ffffffffffffffffffffffffffffffffffffffff1673ffffffffffffffffffffffffffffffffffffffff168152602001908152602001600020600083815260200190815260200160002081905550806007600084815260200190815260200160002081905550505050565b612497838361266f565b6124a460008484846124e8565b6124e3576040517f08c379a00000000000000000000000000000000000000000000000000000000081526004016124da90613d46565b60405180910390fd5b505050565b60006125098473ffffffffffffffffffffffffffffffffffffffff1661288c565b15612662578373ffffffffffffffffffffffffffffffffffffffff1663150b7a0261253261163b565b8786866040518563ffffffff1660e01b81526004016125549493929190613dea565b6020604051808303816000875af192505050801561259057506040513d601f19601f8201168201806040525081019061258d9190613e4b565b60015b612612573d80600081146125c0576040519150601f19603f3d011682016040523d82523d6000602084013e6125c5565b606091505b50600081510361260a576040517f08c379a000000000000000000000000000000000000000000000000000000000815260040161260190613d46565b60405180910390fd5b805181602001fd5b63150b7a0260e01b7bffffffffffffffffffffffffffffffffffffffffffffffffffffffff1916817bffffffffffffffffffffffffffffffffffffffffffffffffffffffff191614915050612667565b600190505b949350505050565b600073ffffffffffffffffffffffffffffffffffffffff168273ffffffffffffffffffffffffffffffffffffffff16036126de576040517f08c379a00000000000000000000000000000000000000000000000000000000081526004016126d590613ec4565b60405180910390fd5b6126e7816120d0565b15612727576040517f08c379a000000000000000000000000000000000000000000000000000000000815260040161271e90613f30565b60405180910390fd5b612735600083836001611ad9565b61273e816120d0565b1561277e576040517f08c379a000000000000000000000000000000000000000000000000000000000815260040161277590613f30565b60405180910390fd5b6001600360008473ffffffffffffffffffffffffffffffffffffffff1673ffffffffffffffffffffffffffffffffffffffff16815260200190815260200160002060008282540192505081905550816002600083815260200190815260200160002060006101000a81548173ffffffffffffffffffffffffffffffffffffffff021916908373ffffffffffffffffffffffffffffffffffffffff160217905550808273ffffffffffffffffffffffffffffffffffffffff16600073ffffffffffffffffffffffffffffffffffffffff167fddf252ad1be2c89b69c2b068fc378daa952ba7f163c4a11628f55a4df523b3ef60405160405180910390a461288860008383600161217b565b5050565b6000808273ffffffffffffffffffffffffffffffffffffffff163b119050919050565b828054828255906000526020600020908101928215612928579160200282015b828111156129275782518260006101000a81548173ffffffffffffffffffffffffffffffffffffffff021916908373ffffffffffffffffffffffffffffffffffffffff160217905550916020019190600101906128cf565b5b5090506129359190612939565b5090565b5b8082111561295257600081600090555060010161293a565b5090565b6000604051905090565b600080fd5b600080fd5b60007fffffffff0000000000000000000000000000000000000000000000000000000082169050919050565b61299f8161296a565b81146129aa57600080fd5b50565b6000813590506129bc81612996565b92915050565b6000602082840312156129d8576129d7612960565b5b60006129e6848285016129ad565b91505092915050565b60008115159050919050565b612a04816129ef565b82525050565b6000602082019050612a1f60008301846129fb565b92915050565b600081519050919050565b600082825260208201905092915050565b60005b83811015612a5f578082015181840152602081019050612a44565b60008484015250505050565b6000601f19601f8301169050919050565b6000612a8782612a25565b612a918185612a30565b9350612aa1818560208601612a41565b612aaa81612a6b565b840191505092915050565b60006020820190508181036000830152612acf8184612a7c565b905092915050565b6000819050919050565b612aea81612ad7565b8114612af557600080fd5b50565b600081359050612b0781612ae1565b92915050565b600060208284031215612b2357612b22612960565b5b6000612b3184828501612af8565b91505092915050565b600073ffffffffffffffffffffffffffffffffffffffff82169050919050565b6000612b6582612b3a565b9050919050565b612b7581612b5a565b82525050565b6000602082019050612b906000830184612b6c565b92915050565b612b9f81612b5a565b8114612baa57600080fd5b50565b600081359050612bbc81612b96565b92915050565b60008060408385031215612bd957612bd8612960565b5b6000612be785828601612bad565b9250506020612bf885828601612af8565b9150509250929050565b612c0b81612ad7565b82525050565b6000602082019050612c266000830184612c02565b92915050565b600080600060608486031215612c4557612c44612960565b5b6000612c5386828701612bad565b9350506020612c6486828701612bad565b9250506040612c7586828701612af8565b9150509250925092565b600080fd5b600080fd5b7f4e487b7100000000000000000000000000000000000000000000000000000000600052604160045260246000fd5b612cc182612a6b565b810181811067ffffffffffffffff82111715612ce057612cdf612c89565b5b80604052505050565b6000612cf3612956565b9050612cff8282612cb8565b919050565b600067ffffffffffffffff821115612d1f57612d1e612c89565b5b612d2882612a6b565b9050602081019050919050565b82818337600083830152505050565b6000612d57612d5284612d04565b612ce9565b905082815260208101848484011115612d7357612d72612c84565b5b612d7e848285612d35565b509392505050565b600082601f830112612d9b57612d9a612c7f565b5b8135612dab848260208601612d44565b91505092915050565b60008060408385031215612dcb57612dca612960565b5b6000612dd985828601612bad565b925050602083013567ffffffffffffffff811115612dfa57612df9612965565b5b612e0685828601612d86565b9150509250929050565b600060208284031215612e2657612e25612960565b5b6000612e3484828501612bad565b91505092915050565b612e46816129ef565b8114612e5157600080fd5b50565b600081359050612e6381612e3d565b92915050565b60008060408385031215612e8057612e7f612960565b5b6000612e8e85828601612bad565b9250506020612e9f85828601612e54565b9150509250929050565b600067ffffffffffffffff821115612ec457612ec3612c89565b5b612ecd82612a6b565b9050602081019050919050565b6000612eed612ee884612ea9565b612ce9565b905082815260208101848484011115612f0957612f08612c84565b5b612f14848285612d35565b509392505050565b600082601f830112612f3157612f30612c7f565b5b8135612f41848260208601612eda565b91505092915050565b60008060008060808587031215612f6457612f63612960565b5b6000612f7287828801612bad565b9450506020612f8387828801612bad565b9350506040612f9487828801612af8565b925050606085013567ffffffffffffffff811115612fb557612fb4612965565b5b612fc187828801612f1c565b91505092959194509250565b60008060408385031215612fe457612fe3612960565b5b6000612ff285828601612bad565b925050602061300385828601612bad565b9150509250929050565b7f4e487b7100000000000000000000000000000000000000000000000000000000600052602260045260246000fd5b6000600282049050600182168061305457607f821691505b6020821081036130675761306661300d565b5b50919050565b7f4552433732313a20617070726f76616c20746f2063757272656e74206f776e6560008201527f7200000000000000000000000000000000000000000000000000000000000000602082015250565b60006130c9602183612a30565b91506130d48261306d565b604082019050919050565b600060208201905081810360008301526130f8816130bc565b9050919050565b7f4552433732313a20617070726f76652063616c6c6572206973206e6f7420746f60008201527f6b656e206f776e6572206f7220617070726f76656420666f7220616c6c000000602082015250565b600061315b603d83612a30565b9150613166826130ff565b604082019050919050565b6000602082019050818103600083015261318a8161314e565b9050919050565b7f4552433732313a2063616c6c6572206973206e6f7420746f6b656e206f776e6560008201527f72206f7220617070726f76656400000000000000000000000000000000000000602082015250565b60006131ed602d83612a30565b91506131f882613191565b604082019050919050565b6000602082019050818103600083015261321c816131e0565b9050919050565b7f455243373231456e756d657261626c653a206f776e657220696e646578206f7560008201527f74206f6620626f756e6473000000000000000000000000000000000000000000602082015250565b600061327f602b83612a30565b915061328a82613223565b604082019050919050565b600060208201905081810360008301526132ae81613272565b9050919050565b7f4e487b7100000000000000000000000000000000000000000000000000000000600052601160045260246000fd5b60006132ef82612ad7565b91507fffffffffffffffffffffffffffffffffffffffffffffffffffffffffffffffff8203613321576133206132b5565b5b600182019050919050565b60006060820190506133416000830186612b6c565b81810360208301526133538185612a7c565b90506133626040830184612c02565b949350505050565b7f455243373231456e756d657261626c653a20676c6f62616c20696e646578206f60008201527f7574206f6620626f756e64730000000000000000000000000000000000000000602082015250565b60006133c6602c83612a30565b91506133d18261336a565b604082019050919050565b600060208201905081810360008301526133f5816133b9565b9050919050565b7f4e487b7100000000000000000000000000000000000000000000000000000000600052603260045260246000fd5b7f4552433732313a20696e76616c696420746f6b656e2049440000000000000000600082015250565b6000613461601883612a30565b915061346c8261342b565b602082019050919050565b6000602082019050818103600083015261349081613454565b9050919050565b60006134a282612ad7565b9150600082036134b5576134b46132b5565b5b600182039050919050565b7f4552433732313a2061646472657373207a65726f206973206e6f74206120766160008201527f6c6964206f776e65720000000000000000000000000000000000000000000000602082015250565b600061351c602983612a30565b9150613527826134c0565b604082019050919050565b6000602082019050818103600083015261354b8161350f565b9050919050565b7f436f6e7472616374206f776e65722063616e6e6f742062652072656d6f766564600082015250565b6000613588602083612a30565b915061359382613552565b602082019050919050565b600060208201905081810360008301526135b78161357b565b9050919050565b7f4e6f207369676e65722061646465640000000000000000000000000000000000600082015250565b60006135f4600f83612a30565b91506135ff826135be565b602082019050919050565b60006020820190508181036000830152613623816135e7565b9050919050565b7f5369676e657220746f2062652064656c65746564206e6f6e2d65786973747300600082015250565b6000613660601f83612a30565b915061366b8261362a565b602082019050919050565b6000602082019050818103600083015261368f81613653565b9050919050565b60006136a182612ad7565b91506136ac83612ad7565b92508282039050818111156136c4576136c36132b5565b5b92915050565b7f4552433732314d657461646174613a2055524920736574206f66206e6f6e657860008201527f697374656e7420746f6b656e0000000000000000000000000000000000000000602082015250565b6000613726602c83612a30565b9150613731826136ca565b604082019050919050565b6000602082019050818103600083015261375581613719565b9050919050565b7f5369676e657220746f2062652061646465642065786973747300000000000000600082015250565b6000613792601983612a30565b915061379d8261375c565b602082019050919050565b600060208201905081810360008301526137c181613785565b9050919050565b7f4552433732313a207472616e736665722066726f6d20696e636f72726563742060008201527f6f776e6572000000000000000000000000000000000000000000000000000000602082015250565b6000613824602583612a30565b915061382f826137c8565b604082019050919050565b6000602082019050818103600083015261385381613817565b9050919050565b7f4552433732313a207472616e7366657220746f20746865207a65726f2061646460008201527f7265737300000000000000000000000000000000000000000000000000000000602082015250565b60006138b6602483612a30565b91506138c18261385a565b604082019050919050565b600060208201905081810360008301526138e5816138a9565b9050919050565b7f5265656e7472616e637947756172643a207265656e7472616e742063616c6c00600082015250565b6000613922601f83612a30565b915061392d826138ec565b602082019050919050565b6000602082019050818103600083015261395181613915565b9050919050565b7f455243373231456e756d657261626c653a20636f6e736563757469766520747260008201527f616e7366657273206e6f7420737570706f727465640000000000000000000000602082015250565b60006139b4603583612a30565b91506139bf82613958565b604082019050919050565b600060208201905081810360008301526139e3816139a7565b9050919050565b60008190508160005260206000209050919050565b60006020601f8301049050919050565b600082821b905092915050565b600060088302613a4c7fffffffffffffffffffffffffffffffffffffffffffffffffffffffffffffffff82613a0f565b613a568683613a0f565b95508019841693508086168417925050509392505050565b6000819050919050565b6000613a93613a8e613a8984612ad7565b613a6e565b612ad7565b9050919050565b6000819050919050565b613aad83613a78565b613ac1613ab982613a9a565b848454613a1c565b825550505050565b600090565b613ad6613ac9565b613ae1818484613aa4565b505050565b5b81811015613b0557613afa600082613ace565b600181019050613ae7565b5050565b601f821115613b4a57613b1b816139ea565b613b24846139ff565b81016020851015613b33578190505b613b47613b3f856139ff565b830182613ae6565b50505b505050565b600082821c905092915050565b6000613b6d60001984600802613b4f565b1980831691505092915050565b6000613b868383613b5c565b9150826002028217905092915050565b613b9f82612a25565b67ffffffffffffffff811115613bb857613bb7612c89565b5b613bc2825461303c565b613bcd828285613b09565b600060209050601f831160018114613c005760008415613bee578287015190505b613bf88582613b7a565b865550613c60565b601f198416613c0e866139ea565b60005b82811015613c3657848901518255600182019150602085019450602081019050613c11565b86831015613c535784890151613c4f601f891682613b5c565b8355505b6001600288020188555050505b505050505050565b7f4552433732313a20617070726f766520746f2063616c6c657200000000000000600082015250565b6000613c9e601983612a30565b9150613ca982613c68565b602082019050919050565b60006020820190508181036000830152613ccd81613c91565b9050919050565b7f4552433732313a207472616e7366657220746f206e6f6e20455243373231526560008201527f63656976657220696d706c656d656e7465720000000000000000000000000000602082015250565b6000613d30603283612a30565b9150613d3b82613cd4565b604082019050919050565b60006020820190508181036000830152613d5f81613d23565b9050919050565b7f4e487b7100000000000000000000000000000000000000000000000000000000600052603160045260246000fd5b600081519050919050565b600082825260208201905092915050565b6000613dbc82613d95565b613dc68185613da0565b9350613dd6818560208601612a41565b613ddf81612a6b565b840191505092915050565b6000608082019050613dff6000830187612b6c565b613e0c6020830186612b6c565b613e196040830185612c02565b8181036060830152613e2b8184613db1565b905095945050505050565b600081519050613e4581612996565b92915050565b600060208284031215613e6157613e60612960565b5b6000613e6f84828501613e36565b91505092915050565b7f4552433732313a206d696e7420746f20746865207a65726f2061646472657373600082015250565b6000613eae602083612a30565b9150613eb982613e78565b602082019050919050565b60006020820190508181036000830152613edd81613ea1565b9050919050565b7f4552433732313a20746f6b656e20616c7265616479206d696e74656400000000600082015250565b6000613f1a601c83612a30565b9150613f2582613ee4565b602082019050919050565b60006020820190508181036000830152613f4981613f0d565b905091905056fea26469706673582212201cf504ea2a2d6b5c2e8f97051e44faf3b996201bdcfd6405c25b94a466bd56e864736f6c63430008110033",
  "devdoc": {
    "kind": "dev",
    "methods": {
      "approve(address,uint256)": {
        "details": "See {IERC721-approve}."
      },
      "balanceOf(address)": {
        "details": "See {IERC721-balanceOf}."
      },
      "getApproved(uint256)": {
        "details": "See {IERC721-getApproved}."
      },
      "isApprovedForAll(address,address)": {
        "details": "See {IERC721-isApprovedForAll}."
      },
      "name()": {
        "details": "See {IERC721Metadata-name}."
      },
      "ownerOf(uint256)": {
        "details": "See {IERC721-ownerOf}."
      },
      "safeTransferFrom(address,address,uint256)": {
        "details": "See {IERC721-safeTransferFrom}."
      },
      "safeTransferFrom(address,address,uint256,bytes)": {
        "details": "See {IERC721-safeTransferFrom}."
      },
      "setApprovalForAll(address,bool)": {
        "details": "See {IERC721-setApprovalForAll}."
      },
      "supportsInterface(bytes4)": {
        "details": "See {IERC165-supportsInterface}."
      },
      "symbol()": {
        "details": "See {IERC721Metadata-symbol}."
      },
      "tokenByIndex(uint256)": {
        "details": "See {IERC721Enumerable-tokenByIndex}."
      },
      "tokenOfOwnerByIndex(address,uint256)": {
        "details": "See {IERC721Enumerable-tokenOfOwnerByIndex}."
      },
      "totalSupply()": {
        "details": "See {IERC721Enumerable-totalSupply}."
      },
      "transferFrom(address,address,uint256)": {
        "details": "See {IERC721-transferFrom}."
      }
    },
    "version": 1
  },
  "userdoc": {
    "kind": "user",
    "methods": {},
    "version": 1
  },
  "storageLayout": {
    "storage": [
      {
        "astId": 90,
        "contract": "contracts/NFTCollection.sol:NFT_Collection",
        "label": "_name",
        "offset": 0,
        "slot": "0",
        "type": "t_string_storage"
      },
      {
        "astId": 92,
        "contract": "contracts/NFTCollection.sol:NFT_Collection",
        "label": "_symbol",
        "offset": 0,
        "slot": "1",
        "type": "t_string_storage"
      },
      {
        "astId": 96,
        "contract": "contracts/NFTCollection.sol:NFT_Collection",
        "label": "_owners",
        "offset": 0,
        "slot": "2",
        "type": "t_mapping(t_uint256,t_address)"
      },
      {
        "astId": 100,
        "contract": "contracts/NFTCollection.sol:NFT_Collection",
        "label": "_balances",
        "offset": 0,
        "slot": "3",
        "type": "t_mapping(t_address,t_uint256)"
      },
      {
        "astId": 104,
        "contract": "contracts/NFTCollection.sol:NFT_Collection",
        "label": "_tokenApprovals",
        "offset": 0,
        "slot": "4",
        "type": "t_mapping(t_uint256,t_address)"
      },
      {
        "astId": 110,
        "contract": "contracts/NFTCollection.sol:NFT_Collection",
        "label": "_operatorApprovals",
        "offset": 0,
        "slot": "5",
        "type": "t_mapping(t_address,t_mapping(t_address,t_bool))"
      },
      {
        "astId": 1140,
        "contract": "contracts/NFTCollection.sol:NFT_Collection",
        "label": "_ownedTokens",
        "offset": 0,
        "slot": "6",
        "type": "t_mapping(t_address,t_mapping(t_uint256,t_uint256))"
      },
      {
        "astId": 1144,
        "contract": "contracts/NFTCollection.sol:NFT_Collection",
        "label": "_ownedTokensIndex",
        "offset": 0,
        "slot": "7",
        "type": "t_mapping(t_uint256,t_uint256)"
      },
      {
        "astId": 1147,
        "contract": "contracts/NFTCollection.sol:NFT_Collection",
        "label": "_allTokens",
        "offset": 0,
        "slot": "8",
        "type": "t_array(t_uint256)dyn_storage"
      },
      {
        "astId": 1151,
        "contract": "contracts/NFTCollection.sol:NFT_Collection",
        "label": "_allTokensIndex",
        "offset": 0,
        "slot": "9",
        "type": "t_mapping(t_uint256,t_uint256)"
      },
      {
        "astId": 10,
        "contract": "contracts/NFTCollection.sol:NFT_Collection",
        "label": "_status",
        "offset": 0,
        "slot": "10",
        "type": "t_uint256"
      },
      {
        "astId": 3170,
        "contract": "contracts/NFTCollection.sol:NFT_Collection",
        "label": "tokenCounter",
        "offset": 0,
        "slot": "11",
        "type": "t_uint256"
      },
      {
        "astId": 3172,
        "contract": "contracts/NFTCollection.sol:NFT_Collection",
        "label": "contractOwner",
        "offset": 0,
        "slot": "12",
        "type": "t_address"
      },
      {
        "astId": 3176,
        "contract": "contracts/NFTCollection.sol:NFT_Collection",
        "label": "_tokenURIs",
        "offset": 0,
        "slot": "13",
        "type": "t_mapping(t_uint256,t_string_storage)"
      },
      {
        "astId": 3180,
        "contract": "contracts/NFTCollection.sol:NFT_Collection",
        "label": "approved",
        "offset": 0,
        "slot": "14",
        "type": "t_mapping(t_address,t_bool)"
      },
      {
        "astId": 3183,
        "contract": "contracts/NFTCollection.sol:NFT_Collection",
        "label": "signers",
        "offset": 0,
        "slot": "15",
        "type": "t_array(t_address)dyn_storage"
      }
    ],
    "types": {
      "t_address": {
        "encoding": "inplace",
        "label": "address",
        "numberOfBytes": "20"
      },
      "t_array(t_address)dyn_storage": {
        "base": "t_address",
        "encoding": "dynamic_array",
        "label": "address[]",
        "numberOfBytes": "32"
      },
      "t_array(t_uint256)dyn_storage": {
        "base": "t_uint256",
        "encoding": "dynamic_array",
        "label": "uint256[]",
        "numberOfBytes": "32"
      },
      "t_bool": {
        "encoding": "inplace",
        "label": "bool",
        "numberOfBytes": "1"
      },
      "t_mapping(t_address,t_bool)": {
        "encoding": "mapping",
        "key": "t_address",
        "label": "mapping(address => bool)",
        "numberOfBytes": "32",
        "value": "t_bool"
      },
      "t_mapping(t_address,t_mapping(t_address,t_bool))": {
        "encoding": "mapping",
        "key": "t_address",
        "label": "mapping(address => mapping(address => bool))",
        "numberOfBytes": "32",
        "value": "t_mapping(t_address,t_bool)"
      },
      "t_mapping(t_address,t_mapping(t_uint256,t_uint256))": {
        "encoding": "mapping",
        "key": "t_address",
        "label": "mapping(address => mapping(uint256 => uint256))",
        "numberOfBytes": "32",
        "value": "t_mapping(t_uint256,t_uint256)"
      },
      "t_mapping(t_address,t_uint256)": {
        "encoding": "mapping",
        "key": "t_address",
        "label": "mapping(address => uint256)",
        "numberOfBytes": "32",
        "value": "t_uint256"
      },
      "t_mapping(t_uint256,t_address)": {
        "encoding": "mapping",
        "key": "t_uint256",
        "label": "mapping(uint256 => address)",
        "numberOfBytes": "32",
        "value": "t_address"
      },
      "t_mapping(t_uint256,t_string_storage)": {
        "encoding": "mapping",
        "key": "t_uint256",
        "label": "mapping(uint256 => string)",
        "numberOfBytes": "32",
        "value": "t_string_storage"
      },
      "t_mapping(t_uint256,t_uint256)": {
        "encoding": "mapping",
        "key": "t_uint256",
        "label": "mapping(uint256 => uint256)",
        "numberOfBytes": "32",
        "value": "t_uint256"
      },
      "t_string_storage": {
        "encoding": "bytes",
        "label": "string",
        "numberOfBytes": "32"
      },
      "t_uint256": {
        "encoding": "inplace",
        "label": "uint256",
        "numberOfBytes": "32"
      }
    }
  }
}